{
  "address": "0x6907F8d93358D85c8706440E1357997E003546F8",
  "abi": [
    {
      "inputs": [
        {
          "internalType": "contract IEAS",
          "name": "eas",
          "type": "address"
        },
        {
          "internalType": "contract IERC721",
          "name": "targetToken",
          "type": "address"
        }
      ],
      "stateMutability": "nonpayable",
      "type": "constructor"
    },
    {
      "inputs": [],
      "name": "AccessDenied",
      "type": "error"
    },
    {
      "inputs": [],
      "name": "InsufficientValue",
      "type": "error"
    },
    {
      "inputs": [],
      "name": "InvalidEAS",
      "type": "error"
    },
    {
      "inputs": [],
      "name": "InvalidLength",
      "type": "error"
    },
    {
      "inputs": [],
      "name": "NotPayable",
      "type": "error"
    },
    {
      "inputs": [
        {
          "components": [
            {
              "internalType": "bytes32",
              "name": "uid",
              "type": "bytes32"
            },
            {
              "internalType": "bytes32",
              "name": "schema",
              "type": "bytes32"
            },
            {
              "internalType": "uint64",
              "name": "time",
              "type": "uint64"
            },
            {
              "internalType": "uint64",
              "name": "expirationTime",
              "type": "uint64"
            },
            {
              "internalType": "uint64",
              "name": "revocationTime",
              "type": "uint64"
            },
            {
              "internalType": "bytes32",
              "name": "refUID",
              "type": "bytes32"
            },
            {
              "internalType": "address",
              "name": "recipient",
              "type": "address"
            },
            {
              "internalType": "address",
              "name": "attester",
              "type": "address"
            },
            {
              "internalType": "bool",
              "name": "revocable",
              "type": "bool"
            },
            {
              "internalType": "bytes",
              "name": "data",
              "type": "bytes"
            }
          ],
          "internalType": "struct Attestation",
          "name": "attestation",
          "type": "tuple"
        }
      ],
      "name": "attest",
      "outputs": [
        {
          "internalType": "bool",
          "name": "",
          "type": "bool"
        }
      ],
      "stateMutability": "payable",
      "type": "function"
    },
    {
      "inputs": [],
      "name": "isPayable",
      "outputs": [
        {
          "internalType": "bool",
          "name": "",
          "type": "bool"
        }
      ],
      "stateMutability": "pure",
      "type": "function"
    },
    {
      "inputs": [
        {
          "components": [
            {
              "internalType": "bytes32",
              "name": "uid",
              "type": "bytes32"
            },
            {
              "internalType": "bytes32",
              "name": "schema",
              "type": "bytes32"
            },
            {
              "internalType": "uint64",
              "name": "time",
              "type": "uint64"
            },
            {
              "internalType": "uint64",
              "name": "expirationTime",
              "type": "uint64"
            },
            {
              "internalType": "uint64",
              "name": "revocationTime",
              "type": "uint64"
            },
            {
              "internalType": "bytes32",
              "name": "refUID",
              "type": "bytes32"
            },
            {
              "internalType": "address",
              "name": "recipient",
              "type": "address"
            },
            {
              "internalType": "address",
              "name": "attester",
              "type": "address"
            },
            {
              "internalType": "bool",
              "name": "revocable",
              "type": "bool"
            },
            {
              "internalType": "bytes",
              "name": "data",
              "type": "bytes"
            }
          ],
          "internalType": "struct Attestation[]",
          "name": "attestations",
          "type": "tuple[]"
        },
        {
          "internalType": "uint256[]",
          "name": "values",
          "type": "uint256[]"
        }
      ],
      "name": "multiAttest",
      "outputs": [
        {
          "internalType": "bool",
          "name": "",
          "type": "bool"
        }
      ],
      "stateMutability": "payable",
      "type": "function"
    },
    {
      "inputs": [
        {
          "components": [
            {
              "internalType": "bytes32",
              "name": "uid",
              "type": "bytes32"
            },
            {
              "internalType": "bytes32",
              "name": "schema",
              "type": "bytes32"
            },
            {
              "internalType": "uint64",
              "name": "time",
              "type": "uint64"
            },
            {
              "internalType": "uint64",
              "name": "expirationTime",
              "type": "uint64"
            },
            {
              "internalType": "uint64",
              "name": "revocationTime",
              "type": "uint64"
            },
            {
              "internalType": "bytes32",
              "name": "refUID",
              "type": "bytes32"
            },
            {
              "internalType": "address",
              "name": "recipient",
              "type": "address"
            },
            {
              "internalType": "address",
              "name": "attester",
              "type": "address"
            },
            {
              "internalType": "bool",
              "name": "revocable",
              "type": "bool"
            },
            {
              "internalType": "bytes",
              "name": "data",
              "type": "bytes"
            }
          ],
          "internalType": "struct Attestation[]",
          "name": "attestations",
          "type": "tuple[]"
        },
        {
          "internalType": "uint256[]",
          "name": "values",
          "type": "uint256[]"
        }
      ],
      "name": "multiRevoke",
      "outputs": [
        {
          "internalType": "bool",
          "name": "",
          "type": "bool"
        }
      ],
      "stateMutability": "payable",
      "type": "function"
    },
    {
      "inputs": [
        {
          "components": [
            {
              "internalType": "bytes32",
              "name": "uid",
              "type": "bytes32"
            },
            {
              "internalType": "bytes32",
              "name": "schema",
              "type": "bytes32"
            },
            {
              "internalType": "uint64",
              "name": "time",
              "type": "uint64"
            },
            {
              "internalType": "uint64",
              "name": "expirationTime",
              "type": "uint64"
            },
            {
              "internalType": "uint64",
              "name": "revocationTime",
              "type": "uint64"
            },
            {
              "internalType": "bytes32",
              "name": "refUID",
              "type": "bytes32"
            },
            {
              "internalType": "address",
              "name": "recipient",
              "type": "address"
            },
            {
              "internalType": "address",
              "name": "attester",
              "type": "address"
            },
            {
              "internalType": "bool",
              "name": "revocable",
              "type": "bool"
            },
            {
              "internalType": "bytes",
              "name": "data",
              "type": "bytes"
            }
          ],
          "internalType": "struct Attestation",
          "name": "attestation",
          "type": "tuple"
        }
      ],
      "name": "revoke",
      "outputs": [
        {
          "internalType": "bool",
          "name": "",
          "type": "bool"
        }
      ],
      "stateMutability": "payable",
      "type": "function"
    },
    {
      "inputs": [],
      "name": "version",
      "outputs": [
        {
          "internalType": "string",
          "name": "",
          "type": "string"
        }
      ],
      "stateMutability": "view",
      "type": "function"
    },
    {
      "stateMutability": "payable",
      "type": "receive"
    }
  ],
  "transactionHash": "0x50f1e75162aeb391254f62cdae773b2da3ee7c17b17c6b159d13b86e37d350b1",
  "args": [
    "0x4200000000000000000000000000000000000021",
    "0x9a1295B04D04e4883cF364f99a899f2E24fb1Eb7"
  ],
  "numDeployments": 1,
  "solcInputHash": "ded9a1260db931f4d81755dd2145bee4",
  "bytecode": "0x61012060405234801561001157600080fd5b506040516109bb3803806109bb83398101604081905261003091610098565b6001608052600360a052600060c052816001600160a01b038116610067576040516341bc07ff60e11b815260040160405180910390fd5b6001600160a01b0390811660e0521661010052506100d2565b6001600160a01b038116811461009557600080fd5b50565b600080604083850312156100ab57600080fd5b82516100b681610080565b60208401519092506100c781610080565b809150509250929050565b60805160a05160c05160e051610100516108a5610116600039600061045a0152600061040d01526000610170015260006101470152600061011e01526108a56000f3fe6080604052600436106100595760003560e01c806354fd4d501461007c57806388e5b2d9146100a757806391db0b7e146100ca578063ce46e046146100dd578063e49617e1146100f1578063e60c35051461010457600080fd5b3661007757604051631574f9f360e01b815260040160405180910390fd5b600080fd5b34801561008857600080fd5b50610091610117565b60405161009e919061064e565b60405180910390f35b6100ba6100b53660046106cd565b6101ba565b604051901515815260200161009e565b6100ba6100d83660046106cd565b610289565b3480156100e957600080fd5b5060006100ba565b6100ba6100ff36600461073e565b610348565b6100ba61011236600461073e565b61035b565b60606101427f000000000000000000000000000000000000000000000000000000000000000061036f565b61016b7f000000000000000000000000000000000000000000000000000000000000000061036f565b6101947f000000000000000000000000000000000000000000000000000000000000000061036f565b6040516020016101a693929190610781565b604051602081830303815290604052905090565b60006101c4610402565b838281146101e55760405163251f56a160e21b815260040160405180910390fd5b3460005b82811015610279576000868683818110610205576102056107e0565b9050602002013590508281111561022f5760405163044044a560e21b815260040160405180910390fd5b61025c898984818110610244576102446107e0565b905060200281019061025691906107f6565b50600190565b61026d576000945050505050610281565b909103906001016101e9565b506001925050505b949350505050565b6000610293610402565b838281146102b45760405163251f56a160e21b815260040160405180910390fd5b3460005b828110156102795760008686838181106102d4576102d46107e0565b905060200201359050828111156102fe5760405163044044a560e21b815260040160405180910390fd5b61032b898984818110610313576103136107e0565b905060200281019061032591906107f6565b8261044d565b61033c576000945050505050610281565b909103906001016102b8565b6000610352610402565b60015b92915050565b6000610365610402565b610355823461044d565b6060600061037c83610552565b600101905060008167ffffffffffffffff81111561039c5761039c610817565b6040519080825280601f01601f1916602001820160405280156103c6576020820181803683370190505b5090508181016020015b600019016f181899199a1a9b1b9c1cb0b131b232b360811b600a86061a8153600a85049450846103d057509392505050565b336001600160a01b037f0000000000000000000000000000000000000000000000000000000000000000161461044b57604051634ca8886760e01b815260040160405180910390fd5b565b6000806001600160a01b037f0000000000000000000000000000000000000000000000000000000000000000166370a08231610490610100870160e0880161082d565b6040516001600160e01b031960e084901b1681526001600160a01b039091166004820152602401602060405180830381865afa1580156104d4573d6000803e3d6000fd5b505050506040513d601f19601f820116820180604052508101906104f89190610856565b116105495760405162461bcd60e51b815260206004820152601d60248201527f546f6b656e5265736f6c7665723a204e6f74546f6b656e486f6c646572000000604482015260640160405180910390fd5b50600192915050565b60008072184f03e93ff9f4daa797ed6e38ed64bf6a1f0160401b83106105915772184f03e93ff9f4daa797ed6e38ed64bf6a1f0160401b830492506040015b6d04ee2d6d415b85acef810000000083106105bd576d04ee2d6d415b85acef8100000000830492506020015b662386f26fc1000083106105db57662386f26fc10000830492506010015b6305f5e10083106105f3576305f5e100830492506008015b612710831061060757612710830492506004015b60648310610619576064830492506002015b600a83106103555760010192915050565b60005b8381101561064557818101518382015260200161062d565b50506000910152565b602081526000825180602084015261066d81604085016020870161062a565b601f01601f19169190910160400192915050565b60008083601f84011261069357600080fd5b50813567ffffffffffffffff8111156106ab57600080fd5b6020830191508360208260051b85010111156106c657600080fd5b9250929050565b600080600080604085870312156106e357600080fd5b843567ffffffffffffffff8111156106fa57600080fd5b61070687828801610681565b909550935050602085013567ffffffffffffffff81111561072657600080fd5b61073287828801610681565b95989497509550505050565b60006020828403121561075057600080fd5b813567ffffffffffffffff81111561076757600080fd5b8201610140818503121561077a57600080fd5b9392505050565b6000845161079381846020890161062a565b601760f91b90830190815284516107b181600184016020890161062a565b601760f91b6001929091019182015283516107d381600284016020880161062a565b0160020195945050505050565b634e487b7160e01b600052603260045260246000fd5b6000823561013e1983360301811261080d57600080fd5b9190910192915050565b634e487b7160e01b600052604160045260246000fd5b60006020828403121561083f57600080fd5b81356001600160a01b038116811461077a57600080fd5b60006020828403121561086857600080fd5b505191905056fea26469706673582212204dd5815b0469d4df188cca90a1ec76da0af5b69b94a69fa5c6a173089170b29e64736f6c634300081a0033",
  "devdoc": {
    "kind": "dev",
    "methods": {
      "attest((bytes32,bytes32,uint64,uint64,uint64,bytes32,address,address,bool,bytes))": {
        "params": {
          "attestation": "The new attestation."
        },
        "returns": {
          "_0": "Whether the attestation is valid."
        }
      },
      "isPayable()": {
        "returns": {
          "_0": "Whether the resolver supports ETH transfers."
        }
      },
      "multiAttest((bytes32,bytes32,uint64,uint64,uint64,bytes32,address,address,bool,bytes)[],uint256[])": {
        "params": {
          "attestations": "The new attestations.",
          "values": "Explicit ETH amounts which were sent with each attestation."
        },
        "returns": {
          "_0": "Whether all the attestations are valid."
        }
      },
      "multiRevoke((bytes32,bytes32,uint64,uint64,uint64,bytes32,address,address,bool,bytes)[],uint256[])": {
        "params": {
          "attestations": "The existing attestations to be revoked.",
          "values": "Explicit ETH amounts which were sent with each revocation."
        },
        "returns": {
          "_0": "Whether the attestations can be revoked."
        }
      },
      "revoke((bytes32,bytes32,uint64,uint64,uint64,bytes32,address,address,bool,bytes))": {
        "params": {
          "attestation": "The existing attestation to be revoked."
        },
        "returns": {
          "_0": "Whether the attestation can be revoked."
        }
      },
      "version()": {
        "returns": {
          "_0": "Semver contract version as a string."
        }
      }
    },
    "title": "TokenResolver",
    "version": 1
  },
  "userdoc": {
    "kind": "user",
    "methods": {
      "attest((bytes32,bytes32,uint64,uint64,uint64,bytes32,address,address,bool,bytes))": {
        "notice": "Processes an attestation and verifies whether it's valid."
      },
      "isPayable()": {
        "notice": "Checks if the resolver can be sent ETH."
      },
      "multiAttest((bytes32,bytes32,uint64,uint64,uint64,bytes32,address,address,bool,bytes)[],uint256[])": {
        "notice": "Processes multiple attestations and verifies whether they are valid."
      },
      "multiRevoke((bytes32,bytes32,uint64,uint64,uint64,bytes32,address,address,bool,bytes)[],uint256[])": {
        "notice": "Processes revocation of multiple attestation and verifies they can be revoked."
      },
      "revoke((bytes32,bytes32,uint64,uint64,uint64,bytes32,address,address,bool,bytes))": {
        "notice": "Processes an attestation revocation and verifies if it can be revoked."
      },
      "version()": {
        "notice": "Returns the full semver contract version."
      }
    },
    "notice": "A sample schema resolver that checks whether a specific amount of tokens was approved to be included in an attestation.",
    "version": 1
  },
  "storageLayout": {
    "storage": [],
    "types": null
  }
}